{
  "contractName": "FlightSuretyApp",
  "abi": [
    {
      "inputs": [
        {
          "internalType": "uint256",
          "name": "",
          "type": "uint256"
        }
      ],
      "name": "flights",
      "outputs": [
        {
          "internalType": "bool",
          "name": "valid",
          "type": "bool"
        },
        {
          "internalType": "uint256",
          "name": "ID",
          "type": "uint256"
        },
        {
          "internalType": "uint8",
          "name": "statusCode",
          "type": "uint8"
        },
        {
          "internalType": "uint256",
          "name": "updatedTimestamp",
          "type": "uint256"
        },
        {
          "internalType": "address",
          "name": "airline",
          "type": "address"
        }
      ],
      "stateMutability": "view",
      "type": "function"
    },
    {
      "inputs": [
        {
          "internalType": "uint256",
          "name": "departureTimestamp",
          "type": "uint256"
        }
      ],
      "name": "registerFlight",
      "outputs": [
        {
          "components": [
            {
              "internalType": "bool",
              "name": "valid",
              "type": "bool"
            },
            {
              "internalType": "uint256",
              "name": "ID",
              "type": "uint256"
            },
            {
              "internalType": "uint8",
              "name": "statusCode",
              "type": "uint8"
            },
            {
              "internalType": "uint256",
              "name": "updatedTimestamp",
              "type": "uint256"
            },
            {
              "internalType": "address",
              "name": "airline",
              "type": "address"
            }
          ],
          "internalType": "struct FlightSuretyApp.Flight",
          "name": "",
          "type": "tuple"
        }
      ],
      "stateMutability": "nonpayable",
      "type": "function"
    },
    {
      "inputs": [
        {
          "internalType": "uint256",
          "name": "flightId",
          "type": "uint256"
        }
      ],
      "name": "getFlight",
      "outputs": [
        {
          "components": [
            {
              "internalType": "bool",
              "name": "valid",
              "type": "bool"
            },
            {
              "internalType": "uint256",
              "name": "ID",
              "type": "uint256"
            },
            {
              "internalType": "uint8",
              "name": "statusCode",
              "type": "uint8"
            },
            {
              "internalType": "uint256",
              "name": "updatedTimestamp",
              "type": "uint256"
            },
            {
              "internalType": "address",
              "name": "airline",
              "type": "address"
            }
          ],
          "internalType": "struct FlightSuretyApp.Flight",
          "name": "",
          "type": "tuple"
        }
      ],
      "stateMutability": "view",
      "type": "function"
    }
  ],
  "bytecode": "0x6080604052600060015534801561001557600080fd5b506107ea806100256000396000f3fe608060405234801561001057600080fd5b50600436106100415760003560e01c806315ccf70f146100465780633a4396cb1461007a57806370f1aeb9146100aa575b600080fd5b610060600480360381019061005b9190610423565b6100da565b6040516100719594939291906104d7565b60405180910390f35b610094600480360381019061008f9190610423565b61014a565b6040516100a191906105ce565b60405180910390f35b6100c460048036038101906100bf9190610423565b610218565b6040516100d191906105ce565b60405180910390f35b60006020528060005260406000206000915090508060000160009054906101000a900460ff16908060010154908060020160009054906101000a900460ff16908060030154908060040160009054906101000a900473ffffffffffffffffffffffffffffffffffffffff16905085565b61015261039e565b6000808381526020019081526020016000206040518060a00160405290816000820160009054906101000a900460ff16151515158152602001600182015481526020016002820160009054906101000a900460ff1660ff1660ff168152602001600382015481526020016004820160009054906101000a900473ffffffffffffffffffffffffffffffffffffffff1673ffffffffffffffffffffffffffffffffffffffff1673ffffffffffffffffffffffffffffffffffffffff16815250509050919050565b61022061039e565b6203f4804261022f9190610618565b8211610270576040517f08c379a000000000000000000000000000000000000000000000000000000000815260040161026790610717565b60405180910390fd5b6040518060a001604052806001151581526020016001548152602001600a60ff1681526020018381526020013373ffffffffffffffffffffffffffffffffffffffff16815250600080600154815260200190815260200160002060008201518160000160006101000a81548160ff0219169083151502179055506020820151816001015560408201518160020160006101000a81548160ff021916908360ff1602179055506060820151816003015560808201518160040160006101000a81548173ffffffffffffffffffffffffffffffffffffffff021916908373ffffffffffffffffffffffffffffffffffffffff1602179055509050506001600081548092919061037c90610737565b9190505550610397600180546103929190610780565b61014a565b9050919050565b6040518060a0016040528060001515815260200160008152602001600060ff16815260200160008152602001600073ffffffffffffffffffffffffffffffffffffffff1681525090565b600080fd5b6000819050919050565b610400816103ed565b811461040b57600080fd5b50565b60008135905061041d816103f7565b92915050565b600060208284031215610439576104386103e8565b5b60006104478482850161040e565b91505092915050565b60008115159050919050565b61046581610450565b82525050565b610474816103ed565b82525050565b600060ff82169050919050565b6104908161047a565b82525050565b600073ffffffffffffffffffffffffffffffffffffffff82169050919050565b60006104c182610496565b9050919050565b6104d1816104b6565b82525050565b600060a0820190506104ec600083018861045c565b6104f9602083018761046b565b6105066040830186610487565b610513606083018561046b565b61052060808301846104c8565b9695505050505050565b61053381610450565b82525050565b610542816103ed565b82525050565b6105518161047a565b82525050565b610560816104b6565b82525050565b60a08201600082015161057c600085018261052a565b50602082015161058f6020850182610539565b5060408201516105a26040850182610548565b5060608201516105b56060850182610539565b5060808201516105c86080850182610557565b50505050565b600060a0820190506105e36000830184610566565b92915050565b7f4e487b7100000000000000000000000000000000000000000000000000000000600052601160045260246000fd5b6000610623826103ed565b915061062e836103ed565b9250827fffffffffffffffffffffffffffffffffffffffffffffffffffffffffffffffff03821115610663576106626105e9565b5b828201905092915050565b600082825260208201905092915050565b7f596f752063616e206f6e6c7920726567697374657220796f757220666c69676860008201527f74206174206c6561737420332064617973206265666f7265206465706172747560208201527f7265000000000000000000000000000000000000000000000000000000000000604082015250565b600061070160428361066e565b915061070c8261067f565b606082019050919050565b60006020820190508181036000830152610730816106f4565b9050919050565b6000610742826103ed565b91507fffffffffffffffffffffffffffffffffffffffffffffffffffffffffffffffff821415610775576107746105e9565b5b600182019050919050565b600061078b826103ed565b9150610796836103ed565b9250828210156107a9576107a86105e9565b5b82820390509291505056fea264697066735822122048d1086159d9c538b856c2f21059b93ca914e7dae161136c377e4851ba64c6c564736f6c634300080a0033",
  "immutableReferences": {},
  "source": "\r\npragma solidity ^0.8.0;\r\n//SPDX-License-Identifier: MIT\r\n\r\ncontract FlightSuretyApp {\r\n\r\nstruct Flight {\r\n    bool valid;\r\n    uint ID;\r\n    uint8 statusCode;\r\n    uint256 updatedTimestamp;\r\n    address airline;\r\n}\r\nmapping(uint => Flight) public flights;\r\nuint _flightIdCounter = 0;\r\n\r\nuint8 private constant STATUS_CODE_UNKNOWN = 0;\r\nuint8 private constant STATUS_CODE_ON_TIME = 10;\r\nuint8 private constant STATUS_CODE_LATE_AIRLINE = 20;\r\nuint8 private constant STATUS_CODE_LATE_WEATHER = 30;\r\nuint8 private constant STATUS_CODE_LATE_TECHNICAL = 40;\r\nuint8 private constant STATUS_CODE_LATE_OTHER = 50;\r\n\r\nfunction registerFlight(uint departureTimestamp) public returns (Flight memory)\r\n{\r\n    require(departureTimestamp > block.timestamp + 3 days, \"You can only register your flight at least 3 days before departure\");\r\n\r\n    flights[_flightIdCounter] = Flight(true, _flightIdCounter, STATUS_CODE_ON_TIME, departureTimestamp, msg.sender);\r\n    _flightIdCounter++;\r\n\r\n    return (getFlight(_flightIdCounter-1));\r\n}\r\n\r\nfunction getFlight(uint flightId) public view returns(Flight memory){\r\n  return flights[flightId];\r\n}\r\n}\r\n",
  "sourcePath": "C:\\Users\\Andrzej.Sulkowski\\source\\Blockchain\\FlightSurety_8\\FlightSurety\\contracts\\TestContract.sol",
  "compiler": {
    "name": "solc",
    "version": "0.8.10+commit.fc410830.Emscripten.clang"
  },
  "schemaVersion": "3.4.3",
  "updatedAt": "2021-11-30T06:33:27.998Z",
  "devdoc": {
    "kind": "dev",
    "methods": {},
    "version": 1
  },
  "userdoc": {
    "kind": "user",
    "methods": {},
    "version": 1
  }
}