{
  "contractName": "FlightSuretyData",
  "abi": [
    {
      "inputs": [],
      "stateMutability": "nonpayable",
      "type": "constructor"
    },
    {
      "anonymous": false,
      "inputs": [
        {
          "indexed": false,
          "internalType": "address",
          "name": "airlineAddress",
          "type": "address"
        },
        {
          "indexed": false,
          "internalType": "bool",
          "name": "registered",
          "type": "bool"
        },
        {
          "indexed": false,
          "internalType": "uint256",
          "name": "TotalRegisteredAirlines",
          "type": "uint256"
        }
      ],
      "name": "registerAirlineEvent",
      "type": "event"
    },
    {
      "stateMutability": "payable",
      "type": "fallback"
    },
    {
      "stateMutability": "payable",
      "type": "receive"
    },
    {
      "inputs": [],
      "name": "isOperational",
      "outputs": [
        {
          "internalType": "bool",
          "name": "",
          "type": "bool"
        }
      ],
      "stateMutability": "view",
      "type": "function"
    },
    {
      "inputs": [
        {
          "internalType": "bool",
          "name": "mode",
          "type": "bool"
        }
      ],
      "name": "setOperatingStatus",
      "outputs": [],
      "stateMutability": "nonpayable",
      "type": "function"
    },
    {
      "inputs": [
        {
          "internalType": "address",
          "name": "appAddress",
          "type": "address"
        }
      ],
      "name": "addAuthorizedCaller",
      "outputs": [],
      "stateMutability": "nonpayable",
      "type": "function"
    },
    {
      "inputs": [
        {
          "internalType": "address",
          "name": "appAddress",
          "type": "address"
        }
      ],
      "name": "removeAuthorizedCaller",
      "outputs": [],
      "stateMutability": "nonpayable",
      "type": "function"
    },
    {
      "inputs": [
        {
          "internalType": "address",
          "name": "_airline",
          "type": "address"
        }
      ],
      "name": "getRegisteredAirline",
      "outputs": [
        {
          "internalType": "bool",
          "name": "",
          "type": "bool"
        }
      ],
      "stateMutability": "view",
      "type": "function"
    },
    {
      "inputs": [
        {
          "internalType": "address",
          "name": "_airline",
          "type": "address"
        },
        {
          "internalType": "bool",
          "name": "value",
          "type": "bool"
        }
      ],
      "name": "setRegisteredAirline",
      "outputs": [],
      "stateMutability": "nonpayable",
      "type": "function"
    },
    {
      "inputs": [],
      "name": "getRegisteredAirlinesCount",
      "outputs": [
        {
          "internalType": "uint256",
          "name": "",
          "type": "uint256"
        }
      ],
      "stateMutability": "view",
      "type": "function"
    },
    {
      "inputs": [
        {
          "internalType": "uint256",
          "name": "InsuredValue",
          "type": "uint256"
        },
        {
          "internalType": "address",
          "name": "insured",
          "type": "address"
        },
        {
          "internalType": "uint256",
          "name": "flightId",
          "type": "uint256"
        }
      ],
      "name": "buyInsurance",
      "outputs": [
        {
          "internalType": "bool",
          "name": "",
          "type": "bool"
        }
      ],
      "stateMutability": "payable",
      "type": "function"
    },
    {
      "inputs": [
        {
          "internalType": "address",
          "name": "insured",
          "type": "address"
        },
        {
          "internalType": "uint256",
          "name": "flightId",
          "type": "uint256"
        }
      ],
      "name": "getInsuranceValue",
      "outputs": [
        {
          "internalType": "uint256",
          "name": "",
          "type": "uint256"
        }
      ],
      "stateMutability": "view",
      "type": "function"
    },
    {
      "inputs": [
        {
          "internalType": "address payable",
          "name": "insured",
          "type": "address"
        },
        {
          "internalType": "uint256",
          "name": "flightId",
          "type": "uint256"
        }
      ],
      "name": "creditInsured",
      "outputs": [
        {
          "internalType": "bool",
          "name": "",
          "type": "bool"
        }
      ],
      "stateMutability": "nonpayable",
      "type": "function"
    },
    {
      "inputs": [],
      "name": "fund",
      "outputs": [
        {
          "internalType": "bool",
          "name": "",
          "type": "bool"
        }
      ],
      "stateMutability": "payable",
      "type": "function"
    }
  ],
  "bytecode": "0x60806040526001600060146101000a81548160ff021916908315150217905550600060035534801561003057600080fd5b50336000806101000a81548173ffffffffffffffffffffffffffffffffffffffff021916908373ffffffffffffffffffffffffffffffffffffffff1602179055506001600260003373ffffffffffffffffffffffffffffffffffffffff1673ffffffffffffffffffffffffffffffffffffffff16815260200190815260200160002060006101000a81548160ff0219169083151502179055506114cc806100d86000396000f3fe6080604052600436106100a05760003560e01c8063b60d428811610064578063b60d4288146101c4578063b7aa0231146101e2578063cd905dff1461020b578063df30b02214610236578063f77890ea14610266578063fb1db4ab14610291576100b0565b8063110466ed146100bb57806313a155ea146100e457806328d7cf8a1461010d5780636300e0c31461014a578063aab7dcc214610187576100b0565b366100b0576100ad6102ba565b50005b6100b86102ba565b50005b3480156100c757600080fd5b506100e260048036038101906100dd9190610e18565b61030d565b005b3480156100f057600080fd5b5061010b60048036038101906101069190610ea3565b6103b8565b005b34801561011957600080fd5b50610134600480360381019061012f9190610f06565b6104a1565b6040516101419190610f55565b60405180910390f35b34801561015657600080fd5b50610171600480360381019061016c9190610fae565b6105e0565b60405161017e9190610ffd565b60405180910390f35b34801561019357600080fd5b506101ae60048036038101906101a99190610ea3565b610825565b6040516101bb9190610ffd565b60405180910390f35b6101cc6102ba565b6040516101d99190610ffd565b60405180910390f35b3480156101ee57600080fd5b5061020960048036038101906102049190610ea3565b6108c9565b005b34801561021757600080fd5b506102206109b2565b60405161022d9190610ffd565b60405180910390f35b610250600480360381019061024b9190611018565b6109c8565b60405161025d9190610ffd565b60405180910390f35b34801561027257600080fd5b5061027b610b6d565b6040516102889190610f55565b60405180910390f35b34801561029d57600080fd5b506102b860048036038101906102b3919061106b565b610bc5565b005b60008060149054906101000a900460ff1661030a576040517f08c379a00000000000000000000000000000000000000000000000000000000081526004016103019061112e565b60405180910390fd5b90565b60008054906101000a900473ffffffffffffffffffffffffffffffffffffffff1673ffffffffffffffffffffffffffffffffffffffff163373ffffffffffffffffffffffffffffffffffffffff161461039b576040517f08c379a00000000000000000000000000000000000000000000000000000000081526004016103929061119a565b60405180910390fd5b80600060146101000a81548160ff02191690831515021790555050565b60008054906101000a900473ffffffffffffffffffffffffffffffffffffffff1673ffffffffffffffffffffffffffffffffffffffff163373ffffffffffffffffffffffffffffffffffffffff1614610446576040517f08c379a000000000000000000000000000000000000000000000000000000000815260040161043d9061119a565b60405180910390fd5b6001600260008373ffffffffffffffffffffffffffffffffffffffff1673ffffffffffffffffffffffffffffffffffffffff16815260200190815260200160002060006101000a81548160ff02191690831515021790555050565b60008060149054906101000a900460ff166104f1576040517f08c379a00000000000000000000000000000000000000000000000000000000081526004016104e89061112e565b60405180910390fd5b60011515600260003373ffffffffffffffffffffffffffffffffffffffff1673ffffffffffffffffffffffffffffffffffffffff16815260200190815260200160002060009054906101000a900460ff16151514610584576040517f08c379a000000000000000000000000000000000000000000000000000000000815260040161057b90611206565b60405180910390fd5b600460010160008473ffffffffffffffffffffffffffffffffffffffff1673ffffffffffffffffffffffffffffffffffffffff168152602001908152602001600020600083815260200190815260200160002054905092915050565b60008060149054906101000a900460ff16610630576040517f08c379a00000000000000000000000000000000000000000000000000000000081526004016106279061112e565b60405180910390fd5b60011515600260003373ffffffffffffffffffffffffffffffffffffffff1673ffffffffffffffffffffffffffffffffffffffff16815260200190815260200160002060009054906101000a900460ff161515146106c3576040517f08c379a00000000000000000000000000000000000000000000000000000000081526004016106ba90611206565b60405180910390fd5b6000600460010160008573ffffffffffffffffffffffffffffffffffffffff1673ffffffffffffffffffffffffffffffffffffffff16815260200190815260200160002060008481526020019081526020016000205490508047101561075e576040517f08c379a000000000000000000000000000000000000000000000000000000000815260040161075590611298565b60405180910390fd5b6000600460010160008673ffffffffffffffffffffffffffffffffffffffff1673ffffffffffffffffffffffffffffffffffffffff16815260200190815260200160002060008581526020019081526020016000208190555080600460000160008282546107cc91906112e7565b925050819055508373ffffffffffffffffffffffffffffffffffffffff166108fc829081150290604051600060405180830381858888f19350505050158015610819573d6000803e3d6000fd5b50600191505092915050565b60008060149054906101000a900460ff16610875576040517f08c379a000000000000000000000000000000000000000000000000000000000815260040161086c9061112e565b60405180910390fd5b600160008373ffffffffffffffffffffffffffffffffffffffff1673ffffffffffffffffffffffffffffffffffffffff16815260200190815260200160002060009054906101000a900460ff169050919050565b60008054906101000a900473ffffffffffffffffffffffffffffffffffffffff1673ffffffffffffffffffffffffffffffffffffffff163373ffffffffffffffffffffffffffffffffffffffff1614610957576040517f08c379a000000000000000000000000000000000000000000000000000000000815260040161094e9061119a565b60405180910390fd5b6000600260008373ffffffffffffffffffffffffffffffffffffffff1673ffffffffffffffffffffffffffffffffffffffff16815260200190815260200160002060006101000a81548160ff02191690831515021790555050565b60008060149054906101000a900460ff16905090565b60008060149054906101000a900460ff16610a18576040517f08c379a0000000000000000000000000000000000000000000000000000000008152600401610a0f9061112e565b60405180910390fd5b60011515600260003373ffffffffffffffffffffffffffffffffffffffff1673ffffffffffffffffffffffffffffffffffffffff16815260200190815260200160002060009054906101000a900460ff16151514610aab576040517f08c379a0000000000000000000000000000000000000000000000000000000008152600401610aa290611206565b60405180910390fd5b83341015610aee576040517f08c379a0000000000000000000000000000000000000000000000000000000008152600401610ae590611367565b60405180910390fd5b8360046000016000828254610b039190611387565b9250508190555083600460010160008573ffffffffffffffffffffffffffffffffffffffff1673ffffffffffffffffffffffffffffffffffffffff168152602001908152602001600020600084815260200190815260200160002081905550600190509392505050565b60008060149054906101000a900460ff16610bbd576040517f08c379a0000000000000000000000000000000000000000000000000000000008152600401610bb49061112e565b60405180910390fd5b600354905090565b600060149054906101000a900460ff16610c14576040517f08c379a0000000000000000000000000000000000000000000000000000000008152600401610c0b9061112e565b60405180910390fd5b60011515600260003373ffffffffffffffffffffffffffffffffffffffff1673ffffffffffffffffffffffffffffffffffffffff16815260200190815260200160002060009054906101000a900460ff16151514610ca7576040517f08c379a0000000000000000000000000000000000000000000000000000000008152600401610c9e90611206565b60405180910390fd5b801515600160008473ffffffffffffffffffffffffffffffffffffffff1673ffffffffffffffffffffffffffffffffffffffff16815260200190815260200160002060009054906101000a900460ff16151514610dd757600115158115151415610d665760036000815480929190610d1e906113dd565b91905055507f1777d04292ab896f7e046c04303b54990e9623de9e9b801f87d629a645197507826001600354604051610d5993929190611435565b60405180910390a1610d7f565b60036000815480929190610d799061146c565b91905055505b80600160008473ffffffffffffffffffffffffffffffffffffffff1673ffffffffffffffffffffffffffffffffffffffff16815260200190815260200160002060006101000a81548160ff0219169083151502179055505b5050565b600080fd5b60008115159050919050565b610df581610de0565b8114610e0057600080fd5b50565b600081359050610e1281610dec565b92915050565b600060208284031215610e2e57610e2d610ddb565b5b6000610e3c84828501610e03565b91505092915050565b600073ffffffffffffffffffffffffffffffffffffffff82169050919050565b6000610e7082610e45565b9050919050565b610e8081610e65565b8114610e8b57600080fd5b50565b600081359050610e9d81610e77565b92915050565b600060208284031215610eb957610eb8610ddb565b5b6000610ec784828501610e8e565b91505092915050565b6000819050919050565b610ee381610ed0565b8114610eee57600080fd5b50565b600081359050610f0081610eda565b92915050565b60008060408385031215610f1d57610f1c610ddb565b5b6000610f2b85828601610e8e565b9250506020610f3c85828601610ef1565b9150509250929050565b610f4f81610ed0565b82525050565b6000602082019050610f6a6000830184610f46565b92915050565b6000610f7b82610e45565b9050919050565b610f8b81610f70565b8114610f9657600080fd5b50565b600081359050610fa881610f82565b92915050565b60008060408385031215610fc557610fc4610ddb565b5b6000610fd385828601610f99565b9250506020610fe485828601610ef1565b9150509250929050565b610ff781610de0565b82525050565b60006020820190506110126000830184610fee565b92915050565b60008060006060848603121561103157611030610ddb565b5b600061103f86828701610ef1565b935050602061105086828701610e8e565b925050604061106186828701610ef1565b9150509250925092565b6000806040838503121561108257611081610ddb565b5b600061109085828601610e8e565b92505060206110a185828601610e03565b9150509250929050565b600082825260208201905092915050565b7f436f6e74726163742069732063757272656e746c79206e6f74206f706572617460008201527f696f6e616c000000000000000000000000000000000000000000000000000000602082015250565b60006111186025836110ab565b9150611123826110bc565b604082019050919050565b600060208201905081810360008301526111478161110b565b9050919050565b7f43616c6c6572206973206e6f7420636f6e7472616374206f776e657200000000600082015250565b6000611184601c836110ab565b915061118f8261114e565b602082019050919050565b600060208201905081810360008301526111b381611177565b9050919050565b7f5468652063616c6c6572206973206e6f7420617574686f72697a656400000000600082015250565b60006111f0601c836110ab565b91506111fb826111ba565b602082019050919050565b6000602082019050818103600083015261121f816111e3565b9050919050565b7f4461746120436f6e747261637420686173206e6f7420656e6f7567682045746860008201527f6572000000000000000000000000000000000000000000000000000000000000602082015250565b60006112826022836110ab565b915061128d82611226565b604082019050919050565b600060208201905081810360008301526112b181611275565b9050919050565b7f4e487b7100000000000000000000000000000000000000000000000000000000600052601160045260246000fd5b60006112f282610ed0565b91506112fd83610ed0565b9250828210156113105761130f6112b8565b5b828203905092915050565b7f4e6f7420656e6f75676820657468657220686164206265656e2073656e640000600082015250565b6000611351601e836110ab565b915061135c8261131b565b602082019050919050565b6000602082019050818103600083015261138081611344565b9050919050565b600061139282610ed0565b915061139d83610ed0565b9250827fffffffffffffffffffffffffffffffffffffffffffffffffffffffffffffffff038211156113d2576113d16112b8565b5b828201905092915050565b60006113e882610ed0565b91507fffffffffffffffffffffffffffffffffffffffffffffffffffffffffffffffff82141561141b5761141a6112b8565b5b600182019050919050565b61142f81610e65565b82525050565b600060608201905061144a6000830186611426565b6114576020830185610fee565b6114646040830184610f46565b949350505050565b600061147782610ed0565b9150600082141561148b5761148a6112b8565b5b60018203905091905056fea264697066735822122081001f3719583a32d5cadc6afa18c09398ba2b5890ac95fd1407c264c5f29aa164736f6c634300080a0033",
  "immutableReferences": {},
  "source": "// SPDX-License-Identifier: MIT\r\npragma solidity ^0.8.0;\r\n\r\nimport \"../node_modules/openzeppelin-solidity/contracts/utils/math/SafeMath.sol\";\r\n\r\ncontract FlightSuretyData {\r\n    using SafeMath for uint256;\r\n\r\n    /********************************************************************************************/\r\n    /*                                       DATA VARIABLES                                     */\r\n    /********************************************************************************************/\r\n\r\n    address private contractOwner;                                      // Account used to deploy contract\r\n    bool private operational = true;                                    // Blocks all state changes throughout the contract if false\r\n    mapping(address => bool) private isAirline;                         // Blocks all state changes throughout the contract if false\r\n    mapping (address => bool) authorizedCallers;\r\n    uint registeredAirlinesCount = 0;\r\n\r\n    /********************************************************************************************/\r\n    /*                                       EVENT DEFINITIONS                                  */\r\n    /********************************************************************************************/\r\n\r\n\r\n    /**\r\n    * @dev Constructor\r\n    *      The deploying account becomes contractOwner\r\n    */\r\n    constructor () public\r\n    {\r\n        contractOwner = msg.sender;\r\n        authorizedCallers[msg.sender] = true;\r\n    }\r\n\r\n    /********************************************************************************************/\r\n    /*                                       FUNCTION MODIFIERS                                 */\r\n    /********************************************************************************************/\r\n\r\n    // Modifiers help avoid duplication of code. They are typically used to validate something\r\n    // before a function is allowed to be executed.\r\n\r\n    /**\r\n    * @dev Modifier that requires the \"operational\" boolean variable to be \"true\"\r\n    *      This is used on all state changing functions to pause the contract in\r\n    *      the event there is an issue that needs to be fixed\r\n    */\r\n    modifier requireIsOperational()\r\n    {\r\n        require(operational, \"Contract is currently not operational\");\r\n        _;  // All modifiers require an \"_\" which indicates where the function body will be added\r\n    }\r\n\r\n    /**\r\n    * @dev Modifier that requires the \"ContractOwner\" account to be the function caller\r\n    */\r\n    modifier requireContractOwner()\r\n    {\r\n        require(msg.sender == contractOwner, \"Caller is not contract owner\");\r\n        _;\r\n    }\r\n\r\n    modifier requireRegisteredAirline(address _airline){\r\n        require(isAirline[_airline], \"Caller is not a verified airline\");\r\n        _;\r\n    }\r\n\r\n    modifier requireAuthorizedCaller(){\r\n        require(authorizedCallers[msg.sender] == true, \"The caller is not authorized\");\r\n        _;\r\n    }\r\n\r\n    /********************************************************************************************/\r\n    /*                                       UTILITY FUNCTIONS                                  */\r\n    /********************************************************************************************/\r\n\r\n    /**\r\n    * @dev Get operating status of contract\r\n    *\r\n    * @return A bool that is the current operating status\r\n    */\r\n    function isOperational() public view returns(bool)\r\n    {\r\n        return operational;\r\n    }\r\n\r\n\r\n    /**\r\n    * @dev Sets contract operations on/off\r\n    *\r\n    * When operational mode is disabled, all write transactions except for this one will fail\r\n    */\r\n    function setOperatingStatus (bool mode) external requireContractOwner\r\n    {\r\n        operational = mode;\r\n    }\r\n\r\n    function addAuthorizedCaller (address appAddress) external requireContractOwner\r\n    {\r\n        authorizedCallers[appAddress] = true;\r\n    }\r\n\r\n    function removeAuthorizedCaller (address appAddress) external requireContractOwner\r\n    {\r\n        authorizedCallers[appAddress] = false;\r\n    }\r\n\r\n    /********************************************************************************************/\r\n    /*                                     SMART CONTRACT FUNCTIONS                             */\r\n    /********************************************************************************************/\r\n\r\n    /*****************************************************************/\r\n    /*                       Register Airline                        */\r\n    /*****************************************************************/\r\n\r\n    event registerAirlineEvent(address airlineAddress,bool registered, uint TotalRegisteredAirlines);\r\n\r\n    function getRegisteredAirline(address _airline) external view requireIsOperational returns(bool)\r\n    {\r\n      return isAirline[_airline];\r\n    }\r\n\r\n    function setRegisteredAirline(address _airline, bool value) external requireIsOperational requireAuthorizedCaller\r\n    {\r\n      if(isAirline[_airline] != value){\r\n        if(value == true){\r\n          registeredAirlinesCount++;\r\n          emit registerAirlineEvent(_airline, true, registeredAirlinesCount);\r\n        }else{\r\n          registeredAirlinesCount--;\r\n        }\r\n        isAirline[_airline] = value;\r\n      }\r\n    }\r\n\r\n    function getRegisteredAirlinesCount() external view requireIsOperational returns (uint) {\r\n      return registeredAirlinesCount;\r\n    }\r\n\r\n\r\n    /****************************************************************/\r\n    /*                         Insurance                            */\r\n    /****************************************************************/\r\n\r\n\r\n    struct InsuranceStruct{\r\n        uint value;\r\n        address flightId;\r\n        uint256 bought;\r\n        uint256 finished;\r\n    }\r\n\r\n    struct InsurancesStruct{\r\n      uint TotalValue;\r\n      mapping(address => mapping(uint => uint)) Insurances;   /*Insurees address -> flightID -> Insured Amount*/\r\n    }\r\n    InsurancesStruct private AllInsurances;\r\n\r\n    function buyInsurance (uint InsuredValue ,address insured , uint flightId) external payable requireIsOperational requireAuthorizedCaller returns(bool)\r\n    {\r\n      require(msg.value >= InsuredValue ,\"Not enough ether had been send\");\r\n      AllInsurances.TotalValue += InsuredValue;\r\n      AllInsurances.Insurances[insured][flightId] = InsuredValue;\r\n\r\n      return true;\r\n    }\r\n    function getInsuranceValue (address insured , uint flightId) external view requireIsOperational requireAuthorizedCaller returns(uint)\r\n    {\r\n      return AllInsurances.Insurances[insured][flightId];\r\n    }\r\n    /**\r\n     *  @dev Credits payouts to insurees\r\n    */\r\n    function creditInsured (address payable insured, uint flightId) external requireIsOperational requireAuthorizedCaller returns (bool)\r\n    {\r\n      uint payoutValue = AllInsurances.Insurances[insured][flightId];\r\n      require(address(this).balance >= payoutValue, \"Data Contract has not enough Ether\");\r\n\r\n      AllInsurances.Insurances[insured][flightId] = 0;\r\n      AllInsurances.TotalValue -= payoutValue;\r\n      insured.transfer(payoutValue);\r\n\r\n      return true;\r\n    }\r\n\r\n   /**\r\n    * @dev Initial funding for the insurance. Unless there are too many delayed flights\r\n    *      resulting in insurance payouts, the contract should be self-sustaining\r\n    *\r\n    */\r\n    function fund () public payable requireIsOperational returns (bool)\r\n    {\r\n\r\n    }\r\n\r\n    function getFlightKey (address airline,string memory flight,uint256 timestamp) requireIsOperational view internal returns(bytes32)\r\n    {\r\n        return keccak256(abi.encodePacked(airline, flight, timestamp));\r\n    }\r\n\r\n    /**\r\n    * @dev Fallback function for funding smart contract.\r\n    *\r\n    */\r\n    fallback() external payable\r\n    {\r\n        fund();\r\n    }\r\n\r\n    /**\r\n    * @dev Receive function for funding smart contract\r\n    *\r\n    */\r\n    receive() external payable\r\n    {\r\n        fund();\r\n    }\r\n\r\n}\r\n",
  "sourcePath": "C:\\Users\\Andrzej.Sulkowski\\source\\Blockchain\\FlightSurety_8\\FlightSurety\\contracts\\FlightSuretyData.sol",
  "compiler": {
    "name": "solc",
    "version": "0.8.10+commit.fc410830.Emscripten.clang"
  },
  "schemaVersion": "3.4.3",
  "updatedAt": "2021-11-30T06:33:28.011Z",
  "devdoc": {
    "kind": "dev",
    "methods": {
      "constructor": {
        "details": "Constructor      The deploying account becomes contractOwner"
      },
      "creditInsured(address,uint256)": {
        "details": "Credits payouts to insurees"
      },
      "fund()": {
        "details": "Initial funding for the insurance. Unless there are too many delayed flights      resulting in insurance payouts, the contract should be self-sustaining"
      },
      "isOperational()": {
        "details": "Get operating status of contract",
        "returns": {
          "_0": "A bool that is the current operating status"
        }
      },
      "setOperatingStatus(bool)": {
        "details": "Sets contract operations on/off When operational mode is disabled, all write transactions except for this one will fail"
      }
    },
    "version": 1
  },
  "userdoc": {
    "kind": "user",
    "methods": {},
    "version": 1
  }
}